:100000000C94B1000C94CE000C94CE000C94CE0055
:100010000C94CE000C94CE000C94CE000C94CE0028
:100020000C94CE000C94CE000C94CE000C947B016A
:100030000C94CE000C94CE000C94CE000C94CE0008
:100040000C94CE000C94CE000C94CE000C94CE00F8
:100050000C94CE000C94CE000C94CE000C94CE00E8
:100060000C94CE000C94CE0000407A10F35A00A0FD
:10007000724E18090010A5D4E80000E87648170071
:1000800000E40B54020000CA9A3B000000E1F505B1
:10009000000080969800000040420F000000A086FB
:1000A00001000000102700000000E803000000002D
:1000B0006400000000000A000000000001000000D1
:1000C00000002C76D888DC674F0823DFC1DFAE59EB
:1000D000E1B1B796E5E3E453C63AE651997696E87E
:1000E000E6C28426EB898C9B62ED407C6FFCEFBC02
:1000F0009C9F40F2BAA56FA5F490055A2AF75C932D
:100100006B6CF9676DC11BFCE0E40D47FEF520E662
:10011000B500D0ED902E0300943577050080841E45
:10012000080000204E0A000000C80C333333330FA0
:10013000986E12831141EF8D2114893BE65516CF3D
:10014000FEE6DB18D1844B381BF77C1D901DA4BB49
:10015000E424203284725E228100C9F124ECA1E5FE
:100160003D2711241FBECFEFD8E0DEBFCDBF11E089
:10017000A0E0B1E0EEE6FCE002C005900D92A030F8
:10018000B107D9F711E0A0E0B1E001C01D92AF3294
:10019000B107E1F70E9444020C9435060C9400006C
:1001A000E0ECF0E0908195FFFDCF8093C6000895CC
:1001B0000F931F93CF93DF938C01EB01DA018091B2
:1001C0000001909101010097B1F0E7E0F1E021E03A
:1001D00030E0422FB90180819181009741F02F5F7B
:1001E0003F4F379626303105A1F7842F01C0822F6B
:1001F000853021F417C060E070E040E0CB01880F4B
:10020000991F880F991F880F991F861B970BFC0158
:10021000E050FF4F11830083D383C283B583A4834F
:100220001682842FDF91CF911F910F91089590E056
:10023000FC01EE0FFF1FEE0FFF1FEE0FFF1FE81B6D
:10024000F90BE050FF4F1182108213821282158247
:100250001482168280E00895CF92DF92EF92FF928F
:100260001F93CF93DF93C6E0D1E00F2EFAEFEF2E6E
:10027000FFEFFF2EF02DEC0EFD1E10E0888188238D
:1002800091F0D701ED91FC911197309761F00995AC
:10029000888181508883F70184819581009719F4C2
:1002A000812F0E9417011F5F279687E090E0E80EDC
:1002B000F91E153019F7DF91CF911F91FF90EF9044
:1002C000DF90CF900895CF93C0E08C2F0E9417014C
:1002D000CF5FC530D1F781E792E09093890080939A
:1002E00088008CE08093810082E080936F00CF9142
:1002F0000895789408951F920F920FB60F921124CB
:100300002F933F938F939F93AF93BF93CF93DF939D
:10031000EF93FF93E0E0F1E0DF0116969F012D5D82
:100320003F4F80819181009791F082819381009766
:1003300059F48C918F5F8C9384819581009739F06B
:1003400001979383828303C00197938382833796B7
:100350001796E217F30729F7FF91EF91DF91CF91FD
:10036000BF91AF919F918F913F912F910F900FBEB1
:100370000F901F9018951092C50083E38093C400DE
:100380001092C00088E18093C10086E08093C20093
:100390000895CF93DF93EC018881882339F021966B
:1003A00090E00E94D00089918823D1F7DF91CF910E
:1003B0000895E0ECF0E080818823ECF78091C6009E
:1003C0000895559A54985D9A80E58A95F1F75D985D
:1003D0004C9BFECF4C990CC009C04C9B08C090EDC3
:1003E0009A95F1F78F5F8E3EC1F7089580E00895EA
:1003F00080ED8A95F1F781E0F0CF0F931F93CF93B3
:10040000DF930E94BB010E94E10180932801682FC5
:1004100070E080E090E00E94BB0220E030E04CE120
:1004200052E40E94490320E030E048E652E40E9492
:100430005302262F372FF82FE92F462F572F682FDB
:10044000792F4093240150932501609326017093E6
:100450002701C9E2D1E0822F932FAF2FBE2FBC011D
:10046000CD0142E022E08E010E94AC038DE00E94AB
:10047000D0008AE00E94D000CE010E94C901DF9125
:10048000CF911F910F9108950E9463018DEF91E02C
:1004900060E070E044E650E00E94D8000E947901DC
:1004A0000E942C01FDCF0CD0BAC0B2D040F0A9D030
:1004B00030F021F45F3F19F09BC05111E4C09EC0A1
:1004C000BFD098F39923C9F35523B1F3951B550B6E
:1004D000BB27AA2762177307840738F09F5F5F4F17
:1004E000220F331F441FAA1FA9F333D00E2E3AF058
:1004F000E0E830D091505040E695001CCAF729D072
:10050000FE2F27D0660F771F881FBB1F26173707C0
:100510004807AB07B0E809F0BB0B802DBF01FF27F0
:1005200093585F4F2AF09E3F510568F061C0ABC001
:100530005F3FECF3983EDCF3869577956795B7952A
:10054000F7959F5FC9F7880F911D9695879597F945
:100550000895E1E0660F771F881FBB1F62177307BE
:100560008407BA0720F0621B730B840BBA0BEE1FD3
:1005700088F7E0950895E89409C097FB3EF49095BC
:100580008095709561957F4F8F4F9F4F9923A9F06C
:10059000F92F96E9BB279395F695879577956795FB
:1005A000B795F111F8CFFAF4BB0F11F460FF1BC03F
:1005B0006F5F7F4F8F4F9F4F16C0882311F096E9D2
:1005C00011C0772321F09EE8872F762F05C0662380
:1005D00071F096E8862F70E060E02AF09A95660F39
:1005E000771F881FDAF7880F9695879597F90895F2
:1005F00097F99F6780E870E060E008959FEF80ECD6
:10060000089500240A941616170618060906089578
:1006100000240A9412161306140605060895092EDE
:100620000394000C11F4882352F0BB0F40F4BF2B4D
:1006300011F460FF04C06F5F7F4F8F4F9F4F08958D
:1006400057FD9058440F551F59F05F3F71F0479583
:10065000880F97FB991F61F09F3F79F08795089568
:10066000121613061406551FF2CF4695F1DF08C087
:10067000161617061806991FF1CF869571056105A4
:1006800008940895E894BB2766277727CB0197F94C
:1006900008950BD0C4CFB5DF28F0BADF18F095234A
:1006A00009F0A6CFABCF1124EECFCADFA0F3959F00
:1006B000D1F3950F50E0551F629FF001729FBB2749
:1006C000F00DB11D639FAA27F00DB11DAA1F649FF5
:1006D0006627B00DA11D661F829F2227B00DA11DA8
:1006E000621F739FB00DA11D621F839FA00D611D2E
:1006F000221F749F3327A00D611D231F849F600D4F
:10070000211D822F762F6A2F11249F5750408AF087
:10071000E1F088234AF0EE0FFF1FBB1F661F771F13
:10072000881F91505040A9F79E3F510570F060CF4F
:10073000AACF5F3FECF3983EDCF3869577956795FB
:10074000B795F795E7959F5FC1F7FE2B880F911D31
:100750009695879597F90895EF920F931F93CF93EE
:10076000322FC02F47FF02C0A4E101C0A4E0E42F54
:10077000FF27E7FDF095F7FF03C0F095E195FF4FE8
:100780004C2F512F2E2F032FEA2E0E94CE038C2F99
:10079000912FCF911F910F91EF900895A9E0B0E0B4
:1007A000E4EDF3E00C9402066A01122FF02E2BE325
:1007B000201718F0B02EB39402C03CE3B32EAE0164
:1007C0004F5F5F4F27E00B2D0E942605BC01A981DA
:1007D000B0E0CD01897090708130910531F0E1FC7D
:1007E00006C0E0FE06C040E205C04DE203C04BE299
:1007F00001C040E0A3FF36C0442311F084E001C0F3
:1008000083E0811710F4181B01C010E0E4FC0BC05A
:10081000912FF60180E202C0819391509923E1F774
:10082000C10ED11C10E0442319F0F60141936F0171
:10083000E2FE05C08EE4F601808391E404C08EE6FA
:10084000F601808391E69183828383E090E0C80E75
:10085000D91E812FF60190E202C091938150882326
:10086000E1F73AC0A2FF3FC0442311F084E001C089
:1008700083E0811710F4181B01C010E0E4FC0BC0EA
:10088000912FF60180E202C0819391509923E1F704
:10089000C10ED11C10E0442319F0F60141936F0101
:1008A000E2FE07C089E4F60180838EE4818386E45A
:1008B00006C089E6F60180838EE6818386E6828320
:1008C00083E090E0C80ED91E812FF60190E202C0AD
:1008D000919381508823E1F7C10ED11CF60110825B
:1008E0008EEF9FEFAFC021E030E0442311F420E011
:1008F00030E0161617061CF4CB01019602C081E009
:1009000090E0280F391FFF2021F08F2D90E00196F5
:1009100002C080E090E0820F931F212F30E0821709
:1009200093071CF4512F581B01C050E08E2D90E00E
:100930009C0120713070E4FC0DC0E3FC0BC0852FDE
:10094000F60190E202C0919381508823E1F7C50E31
:10095000D11C50E0442319F0F60141936F01211599
:10096000310559F4852FF60190E302C0919381502F
:100970008823E1F7C50ED11C50E0B60E4A8120E174
:10098000622E712C6A227B22A4FF03C0413309F43A
:10099000BA941B142CF48B2D893018F088E001C018
:1009A00081E09B0177FF02C020E030E0A0E0B0E0F2
:1009B0009EE2E92E4B01881A9108CB01821B930B12
:1009C0008E010F5F1F4F080F191F8F2D90E0AA2473
:1009D000BB24A81AB90AFFEF2F3F3F0719F4F6010D
:1009E000E1926F016217730744F0821693062CF4AC
:1009F000F801EA0FFB1F818101C080E321503040E4
:100A000011962A153B0524F0F60181936F01E3CF7F
:100A10002617370741F4463328F4453321F461148F
:100A2000710409F481E3F6018193852FDF0190E2DF
:100A300002C09D9381508823E1F7E50FF11D1082DC
:100A400080E090E02996EEE00C941E06283008F035
:100A500027E03327DA01990F311D87FD9160009659
:100A60006105710539F432602E5F3D9330E32A95BC
:100A7000E1F708959F3F30F080387105610509F076
:100A80003C5F3C5F3D93913008F08068911DDF939F
:100A9000CF931F930F93FF92EF92192F987F969504
:100AA000E92F96959695E90FFF27EE53FF4F99276B
:100AB0003327EE24FF24A701E7010590089407944B
:100AC00028F4360FE71EF81E491F511D660F771FC9
:100AD000881F991F0694A1F70590079428F4E70E44
:100AE000F81E491F561FC11D770F881F991F661FCB
:100AF0000694A1F70590079428F4F80E491F561F95
:100B0000C71FD11D880F991F661F771F0694A1F775
:100B10000590079420F4490F561FC71FD81F990F3F
:100B2000661F771F881F0694A9F784911095177088
:100B300041F0D695C79557954795F794E7941A9540
:100B4000C1F7E8E6F0E0689415901591359165914C
:100B5000959105907FE27395E118F10A430B560BCE
:100B6000C90BD009C0F7E10CF11E431F561FC91F66
:100B7000D01D7EF4703311F48A95E6CFE8940150CD
:100B800030F0080F0AF40027021708F4202F2395ED
:100B9000022F7A3328F079E37D932A95E9F710C084
:100BA0007D932A9589F606949795679537951795BD
:100BB0001794E118F10A430B560BC90BD00998F0B2
:100BC00023957E9173957A3308F070E37C9320131C
:100BD000B8F77E9170617D9330F0839571E37D93DA
:100BE00070E32A95E1F71124EF90FF900F911F9188
:100BF000CF91DF91992787FD909508952F923F928D
:100C00004F925F926F927F928F929F92AF92BF921C
:100C1000CF92DF92EF92FF920F931F93CF93DF93C8
:100C2000CDB7DEB7CA1BDB0B0FB6F894DEBF0FBE25
:100C3000CDBF09942A88398848885F846E847D8472
:100C40008C849B84AA84B984C884DF80EE80FD8074
:100C50000C811B81AA81B981CE0FD11D0FB6F894EA
:0E0C6000DEBF0FBECDBFED010895F894FFCFAB
:00000001FF
