S01700004763634170706C69636174696F6E322E737265635A
S11300000C9461000C947E000C947E000C947E0091
S11300100C947E000C947E000C947E000C947E0064
S11300200C947E000C947E000C947E000C947E0054
S11300300C947E000C947E000C947E000C947E0044
S11300400C947E000C947E000C947E000C947E0034
S11300500C947E000C947E000C947E000C947E0024
S11300600C947E000C947E0008000000BE9224498B
S1130070123EABAAAA2ABECDCCCC4C3E00000080D6
S1130080BEABAAAAAA3E00000000BF000000803F49
S11300900000000000084178D3BB4387D1133D1909
S11300A00E3CC3BD4282AD2B3E68EC8276BED98F36
S11300B0E1A93E4C80EFFFBE01C4FF7F3F0000007A
S11300C0000011241FBECFEFD8E0DEBFCDBF11E08A
S11300D0A0E0B1E0EEE2F8E002C005900D92AE308F
S11300E0B107D9F711E0AEE0B1E001C01D92A23131
S11300F0B107E1F70E94C7010C9415040C940000A9
S113010023B130E002C0359527958A95E2F781E066
S113011090E020FD02C080E090E00895662371F431
S113012045B121E030E0B90102C0660F771F8A951E
S1130130E2F7CB018095842385B9089545B121E088
S113014030E0B90102C0660F771F8A95E2F7CB0150
S1130150842B85B90895CF93DF93D82FC8E081E02D
S113016060E00E948E006D2F617080E00E948E001E
S1130170D69581E061E00E948E00C15081F7DF9145
S1130180CF910895CF93C82F82E060E00E948E0043
S11301908C2F0E94AB0082E061E00E948E00CF9120
S11301A00895CF9380E40E94C20082E060E00E9440
S11301B08E0080EC0E94AB00C0E180E00E94AB00A6
S11301C0C150D9F782E061E00E948E00CF9108957A
S11301D08FEF84B989E80E94C20008952F923F925C
S11301E04F925F926F927F928F929F92AF92BF9243
S11301F0CF92DF92EF92FF920F931F93CF93DF93EF
S1130200CDB7DEB72C970FB6F894DEBF0FBECDBFC7
S11302102DB63EB6DE011196E0E0F1E08AE00190F1
S11302200D928150E1F700910E01F0900F01E090E2
S11302301001D0901101602F7F2D8E2D9D2D0E94D5
S11302406B020E94F70220E030E040E85FE30E9486
S1130250D9010E943D02C62E862F90E00196880F98
S1130260991F2DB73EB7281B390B0FB6F8943EBF24
S11302700FBE2DBF8DB79EB701969C878B874C010F
S113028010E00F2EFAE04F2EF0E05F2EF0E06F2E1C
S1130290F0E07F2EF02D812F90E0880F991F5401FC
S11302A0A80EB91E602F7F2D8E2D9D2DA3019201C6
S11302B00E94D803DC01CB01F50191838083022FD6
S11302C0F32EE42ED52E1F5FC11628F780E40E947A
S11302D0C20082E060E00E948E0080EC0E94AB00CD
S11302E0EB84FC8418E0C11638F480E00E94AB0073
S11302F080E00E94AB000EC0F7018685E1E0F0E0EB
S1130300EC0FFD1FE80FF11D80810E94AB0080E01F
S11303100E94AB0011502EEF3FEFE20EF31E1123AB
S113032011F782E061E00E948E0080910E019091AD
S11303300F01A0911001B09111010196A11DB11DF1
S113034080930E0190930F01A0931001B0931101BB
S113035080E00FB6F8943EBE0FBE2DBE2C960FB6AD
S1130360F894DEBF0FBECDBFDF91CF911F910F91E7
S1130370FF90EF90DF90CF90BF90AF909F908F90C1
S11303807F906F905F904F903F902F9008950E94C0
S1130390E80080E0882311F40E94EE002FEF31EE94
S11303A044E0215030404040E1F700C00000F2CF6B
S11303B05058BB27AA270ED0E0C0D1D030F0D6D0F9
S11303C020F031F49F3F11F41EF4C6C00EF4E09502
S11303D0E7FBBCC0E92FE2D080F3BA1762077307CA
S11303E08407950718F071F49EF5FAC00EF4E095B1
S11303F00B2EBA2FA02D0B01B90190010C01CA01DB
S1130400A0011124FF27591B99F0593F50F4503E85
S113041068F11A16F040A22F232F342F4427585F77
S1130420F3CF469537952795A795F0405395C9F78F
S11304307EF41F16BA0B620B730B840BBAF0915047
S1130440A1F0FF0FBB1F661F771F881FC2F70EC0E6
S1130450BA0F621F731F841F48F4879577956795B9
S1130460B795F7959E3F08F0B3CF9395880F08F0A2
S11304709927EE0F97958795089598D088F09F5700
S113048090F0B92F9927B751A0F0D1F0660F771FDC
S1130490881F991F1AF0BA95C9F712C0B13081F0BC
S11304A09FD0B1E008959CC0672F782F8827B85F4C
S11304B039F0B93FCCF3869577956795B395D9F71D
S11304C03EF490958095709561957F4F8F4F9F4F27
S11304D00895E89409C097FB3EF490958095709533
S11304E061957F4F8F4F9F4F9923A9F0F92F96E97C
S11304F0BB279395F695879577956795B795F111F1
S1130500F8CFFAF4BB0F11F460FF1BC06F5F7F4F8D
S11305108F4F9F4F16C0882311F096E911C077239F
S113052021F09EE8872F762F05C0662371F096E8A8
S1130530862F70E060E02AF09A95660F771F881F77
S1130540DAF7880F9695879597F9089597F99F6735
S113055080E870E060E008959FEF80EC0895002447
S11305600A941616170618060906089500240A9414
S113057012161306140605060895092E0394000C9A
S113058011F4882352F0BB0F40F4BF2B11F460FF29
S113059004C06F5F7F4F8F4F9F4F089557FD905852
S11305A0440F551F59F05F3F71F04795880F97FB33
S11305B0991F61F09F3F79F08795089512161306ED
S11305C01406551FF2CF4695F1DF08C0161617061C
S11305D01806991FF1CF8695710561050894089551
S11305E0E894BB2766277727CB0197F908950AD0AB
S11305F029ED3BE54EED5EE345C00EF0A6C0ACCF61
S11306006894A4CFD3DFC8F39923D1F3C6F3DF935F
S1130610CF931F930F93FF92C92FDD2788232AF0CE
S11306202197660F771F881FDAF720E030E040E853
S11306305FEB9FE3883920F0803E30F021968F777E
S1130640B8DEE8E6F0E003C0B4DEE5E9F0E08BD024
S11306508B01BE01EC01FB2E6F5771097595771F55
S1130660880B990B38DF28E132E741E35FE316D0CA
S1130670AF2D9801AE01FF900F911F91CF91DF91A3
S1130680A9DE7BCF0BD079CF6ADF28F06FDF18F0BB
S1130690952309F05BCF60CF1124A3CF7FDFA0F3B4
S11306A0959FD1F3950F50E0551F629FF001729F03
S11306B0BB27F00DB11D639FAA27F00DB11DAA1F22
S11306C0649F6627B00DA11D661F829F2227B00D6F
S11306D0A11D621F739FB00DA11D621F839FA00DFA
S11306E0611D221F749F3327A00D611D231F849F4A
S11306F0600D211D822F762F6A2F11249F575040A1
S11307008AF0E1F088234AF0EE0FFF1FBB1F661F3B
S1130710771F881F91505040A9F79E3F510570F0F4
S113072015CF5FCF5F3FECF3983EDCF3869577956A
S11307306795B795F795E7959F5FC1F7FE2B880FEF
S1130740911D9695879597F908959F3F31F09150A3
S113075020F4879577956795B795880F911D9695A1
S1130760879597F90895DF93CF931F930F93FF9283
S1130770EF92DF927B018C01689405C0DA2EEF01C1
S11307808DDFFE01E894A591259135914591559110
S1130790AEF3EF011FDEFE019701A801DA9479F7A9
S11307A0DF90EF90FF900F911F91CF91DF9108950B
S11307B097FB092E05260ED057FD04D014D00AD07D
S11307C0001C38F450954095309521953F4F4F4F7C
S11307D05F4F0895F6F790958095709561957F4FDA
S11307E08F4F9F4F0895A1E21A2EAA1BBB1BFD0138
S11307F00DC0AA1FBB1FEE1FFF1FA217B307E407FC
S1130800F50720F0A21BB30BE40BF50B661F771F53
S1130810881F991F1A9469F7609570958095909533
S11108209B01AC01BD01CF010895F894FFCFF8
S111082E3F065B4F666D7D077F6F0201000081
S9030000FC
