:100000000C9434000C9451000C9451000C94510049
:100010000C9451000C9451000C9451000C9451001C
:100020000C9451000C9451000C9451000C9451000C
:100030000C9451000C9451000C9451000C945100FC
:100040000C9451000C9451000C9451000C945100EC
:100050000C9451000C9451000C9451000C945100DC
:100060000C9451000C94510011241FBECFEFD8E026
:10007000DEBFCDBF11E0A0E0B1E0E6E1F1E002C0FB
:1000800005900D92A030B107D9F711E0A0E0B1E0E2
:1000900001C01D92A030B107E1F70E9471000C94DD
:1000A00089000C9400001092C50083E38093C40083
:1000B0001092C00088E18093C10086E08093C20066
:1000C0000895E0ECF0E0908195FFFDCF8093C600AD
:1000D0000895E0ECF0E080818823ECF78091C60081
:1000E00008950E9453008FEF93EDA0E3815090405C
:1000F000A040E1F700C0000083E30E9461008FEFA1
:1001000093EDA0E381509040A040E1F700C00000D3
:06011000F3CFF894FFCFCD
:00000001FF
